:100000000C94AC000C94D4000C9475010C949F01DA
:100010000C94D4000C94D4000C94D4000C94D40010
:100020000C94D4000C94D4000C94D4000C94D40000
:100030000C94D4000C94D4000C94D4000C94D400F0
:100040000C945D100C94D4000C94C1030C94D40057
:100050000C94D4000C94D4000C94D4000C94D400D0
:100060000C94D4000C94D40000C2010001001100D3
:1000700011000C0000E100000A002500250021000D
:10008000009600001900390039003600127A00008D
:100090001F004600460044008070000022004D0012
:1000A0004D004A00004B00003600750075007200DC
:1000B000403800004A009C009C0099008025000008
:1000C0007200EC00EC00E900C0120000E900DA0167
:1000D000DA01D70160090000D701B603B603B30304
:1000E000B0040000B3036E076E076B072C0100001D
:1000F000DC0EC11DC11DBE1D000000002400270034
:100100002A0000000000250028002B00000000004D
:100110002300260029000404040404040404020249
:100120000202020203030303030301020408102076
:100130004080010204081020010204081020000081
:100140000007000201000003040600000000000098
:10015000000019194305121911241FBECFEFD8E072
:10016000DEBFCDBF12E0A0E0B1E0ECECFAE302C0EC
:1001700005900D92AE34B107D9F713E0AEE4B2E0CA
:1001800001C01D92AD34B107E1F711E0C6E5D1E041
:1001900004C02297FE010E941B1AC235D107C9F77D
:1001A0000E9490190C94591D0C940000FC01809140
:1001B0004E0290914F028E179F0711F480E0089530
:1001C00081898E7F818B9FB7F894109290028091E5
:1001D000900280939102F0934F02E0934E029FBFF2
:1001E00081E008950F931F93CF93DF93FC018189E2
:1001F000A481B5819381082F027081FF05C08C9185
:10020000892309F454C004C08C91892309F04FC09C
:100210008185928520E001972FEF8F3F9207D9F7D4
:10022000C385D485A481B581738160E031E040E06D
:1002300050E010E0CE01212F01972FEF8F3F920762
:10024000D9F78C91872311F0632B03C0832F8095FE
:100250006823330F4F5F5F4F4830510559F785854D
:10026000968520E001972FEF8F3F9207D9F7011174
:100270006095809190022091910290E001968F7399
:10028000907030E08217930779F0E0919002F0E0EF
:10029000E05BFD4F60838091900290E001968F7348
:1002A00090708093900203C081898160818BDF917F
:1002B000CF911F910F910895FC01A781B085968180
:1002C000662329F48C91909598239C9308958C91A2
:1002D000892B8C930895DC011496ED91FC91159770
:1002E000808113969C91892308951F920F920FB6D7
:1002F0000F9211242F933F934F935F936F937F93AC
:100300008F939F93AF93BF93EF93FF9380914E0290
:1003100090914F02009711F00E94F200FF91EF912F
:10032000BF91AF919F918F917F916F915F914F910D
:100330003F912F910F900FBE0F901F9018951F9215
:100340000F920FB60F9211242F933F934F935F9309
:100350006F937F938F939F93AF93BF93EF93FF938D
:1003600080914E0290914F02009711F00E94F2008E
:10037000FF91EF91BF91AF919F918F917F916F917D
:100380005F914F913F912F910F900FBE0F901F9053
:100390001895FC0186E091E0918380830895FC012B
:1003A00086E091E0918380830895CF92DF92EF926F
:1003B000FF920F931F93CF93DF93EC017A018B0190
:1003C000188A1F861E861D861C861B861A8619861D
:1003D00020E030E06901CC0CDD1CC20ED31EB6015A
:1003E000660F771F660F771FAB0148595F4FFA0101
:1003F00085919591A591B4918E159F05A007B107A0
:10040000E9F4FB01E459FF4F859194919A8789871C
:10041000FB01E259FF4F859194919C878B87FB01EB
:10042000E059FF4F859194919E878D87FB01EE588F
:10043000FF4F85919491988B8F8706C02F5F3F4F18
:100440002C30310509F0C6CF8D859E85892B41F072
:100450008F85988920E001972FEF8F3F9207D9F77A
:10046000CE010E94D600DF91CF911F910F91FF9096
:10047000EF90DF90CF90089508950E94D6008823D2
:1004800031F49091910280919002981719F42FEF16
:100490003FEF0FC0E0919102F0E0E05BFD4F208163
:1004A0008091910290E001968F73907080939102F9
:1004B00030E0C90108950E94D600882311F080E041
:1004C0000895809190022091910290E0805C9F4F6E
:1004D000821B910960E470E00E94991908951F93AE
:1004E000CF93DF93EC01162F8F859889892B09F420
:1004F00080C0CE010E94D600BFB7F8948989EF81F1
:10050000F8852E8181FF70C08081822B80838F854A
:100510009889059620E001972FEF8F3F9207D9F732
:10052000898981FF2CC031E040E050E0612F70E00C
:10053000A0E0832F90E086239723EF81F8852E811A
:10054000892B29F0808120952823208303C0808176
:10055000822B80838F8598892A2F01972FEF8F3FD9
:100560009207D9F7330F4F5F5F4F4830510509F7B6
:10057000EF81F88590818E81809589232AC031E0B2
:1005800040E050E0612F70E0A0E0832F90E08623F0
:100590009723EF81F8852E81892B21F08081822B92
:1005A000808304C080812095282320838F859889AB
:1005B0002A2F01972FEF8F3F9207D9F7330F4F5F05
:1005C0005F4F4830510509F7EF81F88580819E81A2
:1005D000892B8083BFBF8F85988920E001972FEFFB
:1005E0008F3F9207D9F705C080812095282320836B
:1005F0008ECFDF91CF911F910895882321F08091B4
:100600006E00816003C080916E008E7F80936E00CB
:10061000089520914E0230914F022817390749F46E
:100620009FB7F8941092900280919002809391026B
:100630009FBF08951F93CF93DF93EC01162F862F52
:1006400060E00E944411898981FD04C0812F61E02E
:100650000E9497111A83212F30E0C901865D9E4FB9
:10066000FC0184918B832A5E3E4FF9016491E62F51
:10067000F0E0EE0FFF1FE45FFE4F859194919D83A4
:100680008C83DF91CF911F910895FF920F931F9359
:100690008C01F62E862F61E00E9444118F2D61E0BF
:1006A0000E9497118F2D90E0FC01E65DFE4FE491D2
:1006B000D8011696EC9316978A5E9E4FFC016491C2
:1006C000E62FF0E0EE0FFF1FEE5FFE4F8591949155
:1006D00018969C938E9317971F910F91FF900895F2
:1006E000FF920F931F938C01F62E86E091E0F801A4
:1006F000918380831286118614861386168615864A
:10070000108A178681892170220F8C7F822B818B22
:10071000C801642F0E944503C8016F2D0E941A036F
:100720001F910F91FF900895FF920F931F938C01DB
:10073000F62E86E091E0F80191838083128611867F
:100740001486138616861586108A1786818921706D
:10075000220F8C7F822B818BC801642F0E9445035E
:10076000C8016F2D0E941A031F910F91FF900895E9
:10077000CB01642F0E94391D0895CB010E94311DC9
:1007800008951F920F920FB60F9211242F933F934B
:100790004F938F939F93EF93FF934091C600E09107
:1007A0001303F091140331969F012F773070319726
:1007B00080911503909116032817390739F0ED56EB
:1007C000FD4F40833093140320931303FF91EF9167
:1007D0009F918F914F913F912F910F900FBE0F904E
:1007E0001F9018958F92AF92CF92DF92EF92FF9267
:1007F0000F931F93DF93CF93CDB7DEB7FC0180E15A
:1008000091E091838083738362835583448337832C
:10081000268311870087F386E286D586C486A6865E
:1008200087868D85808B8E85818B8F85828BCF91FE
:10083000DF911F910F91FF90EF90DF90CF90AF90DD
:100840008F9008958F92AF92CF92DF92EF92FF92A6
:100850000F931F93DF93CF93CDB7DEB7FC0180E1F9
:1008600091E09183808373836283558344833783CC
:10087000268311870087F386E286D586C486A686FE
:1008800087868D85808B8E85818B8F85828BCF919E
:10089000DF911F910F91FF90EF90DF90CF90AF907D
:1008A0008F900895CF93DF93EC019A01AB01E88517
:1008B000F985203081EE380780E0480780E058074E
:1008C00009F445C081E090E00A8802C0880F991FB2
:1008D0000A94E2F7808360E079E08DE390E00E9483
:1008E000AC192150304040405040569547953795BF
:1008F0002795EC81FD813083EE81FF812083EA859D
:10090000FB85208141E050E0CA010E8402C0880FBF
:10091000991F0A94E2F7282B2083EA85FB85208122
:10092000CA010F8402C0880F991F0A94E2F7282B8E
:100930002083EA85FB858081088802C0440F551F0B
:100940000A94E2F7842B8083DF91CF91089510827F
:1009500020E130E0CECFFC01A285B3854C9121E0AF
:1009600030E0C901068402C0880F991F0A94E2F79B
:10097000809584238C93A285B3854C91C90107840B
:1009800002C0880F991F0A94E2F7809584238C9304
:10099000A285B3858C91008802C0220F331F0A9470
:1009A000E2F7209528232C930895DC011296ED910F
:1009B000FC911397E058FF4F2191319180819181F3
:1009C000281B390B2F773070C9010895DC0112966E
:1009D000ED91FC911397EE57FF4F20813181929159
:1009E0008291E058F0408217930719F42FEF3FEF00
:1009F00005C0E20FF31F8081282F30E0C901089560
:100A0000DC011296ED91FC911397DF01AE57BF4FB9
:100A10002D913C911197E058FF4F80819181E058D2
:100A2000F0408217930719F42FEF3FEF0BC0E20F4E
:100A3000F31F80812F5F3F4F2F7730702D933C93B2
:100A4000282F30E0C9010895DC011296ED91FC9148
:100A50001397EE57FF4F808191819293829308956F
:100A6000FC01A085B18521898C9190E0022E02C005
:100A7000959587950A94E2F780FFF6CF0484F58573
:100A8000E02D6083089580E191E0909318038093B6
:100A9000170383E992E090931A038093190385EC7E
:100AA00090E090931C0380931B0384EC90E0909360
:100AB0001E0380931D0380EC90E0909320038093AD
:100AC0001F0381EC90E0909322038093210386EC36
:100AD00090E0909324038093230384E08093250384
:100AE00083E08093260387E08093270385E080934B
:100AF000280381E08093290308950F931F93CF93D8
:100B0000DF938C01EB0109C02196D801ED91FC9196
:100B10000190F081E02DC801099568816623A1F755
:100B2000DF91CF911F910F910895EF92FF920F9354
:100B30001F93CF93DF938C017B01EA010CC0D70197
:100B40006D917D01D801ED91FC910190F081E02D36
:100B5000C80109952197209791F7DF91CF911F91B7
:100B60000F91FF90EF900895DC01ED91FC910280D0
:100B7000F381E02D09950895CF92DF92EF92FF92D5
:100B80000F931F93CF93DF936C017B01C0E0D0E004
:100B90000EC0D601ED91FC9100811181C701BE010B
:100BA0000E947E08682FC601F80109952196F70179
:100BB00084819581C817D90760F3DF91CF911F9188
:100BC0000F91FF90EF90DF90CF9008952F923F927A
:100BD0004F925F926F927F928F929F92AF92BF924D
:100BE000CF92DF92EF92FF920F931F93DF93CF93F9
:100BF000CDB7DEB7A0970FB6F894DEBF0FBECDBF5E
:100C00001C016A017B01411551056105710549F41B
:100C100040E350E060E070E020E030E00E94B00689
:100C200054C0882499245401422E552466247724E4
:100C300001E010E00C0F1D1F080D191DC701B601C2
:100C4000A30192010E94AC19F80160830894811CF1
:100C5000911CA11CB11CC701B601A30192010E9405
:100C6000AC19C901DA016C017D01C114D104E104A0
:100C7000F104F1F681E0E82EF12CEC0EFD1EE80CFB
:100C8000F91C3E010894611C711CD501C401019737
:100C9000A109B1096C01C818D90814C0F601EE0DFC
:100CA000FF1D40814A3010F4405D01C0495C50E0B6
:100CB00060E070E0C10120E030E00E94B0060894DE
:100CC000E108F1086E147F0449F7A0960FB6F89476
:100CD000DEBF0FBECDBFCF91DF911F910F91FF906F
:100CE000EF90DF90CF90BF90AF909F908F907F90CC
:100CF0006F905F904F903F902F900895DC012115E9
:100D0000310541F4ED91FC910190F081E02D642FCB
:100D1000099508950E94E6050895EF92FF920F93BA
:100D20001F939A017B0100E010E0B801A7010E9427
:100D30007E061F910F91FF90EF900895EF92FF9222
:100D40000F931F939A01E62EFF2400E010E0B801F4
:100D5000A7010E947E061F910F91FF90EF900895CA
:100D6000EF92FF920F931F93CF93DF93EC017A01E1
:100D70008B012115310541F4E881F9810190F08161
:100D8000E02D642F09951BC02A303105B1F477FF9F
:100D900010C04DE250E060E070E020E030E00E94E2
:100DA000B00610950095F094E094E11CF11C011D33
:100DB000111DCE01B801A7012AE00E94E605DF91CE
:100DC000CF911F910F91FF90EF900895EF92FF92B6
:100DD0000F931F937B019A010027F7FC0095102FBA
:100DE000B801A7010E94B0061F910F91FF90EF90EC
:100DF0000895EF92FF920F931F939A01E62EFF241E
:100E000000E010E0B801A7010E94B0061F910F9109
:100E1000FF90EF9008950F931F938C014DE050E0E9
:100E200060E070E020E030E00E94B006C8014AE0D7
:100E300050E060E070E020E030E00E94B0061F91DA
:100E40000F9108950F931F938C010E947E06C80195
:100E50000E940B071F910F910895CF92DF92EF929E
:100E6000FF920F931F938C019A016B01EE24FF24D4
:100E7000B701A6010E947E06C8010E940B071F91C0
:100E80000F91FF90EF90DF90CF900895CF92DF9277
:100E9000EF92FF920F931F938C019A01C62EDD24CF
:100EA000EE24FF24B701A6010E947E06C8010E941D
:100EB0000B071F910F91FF90EF90DF90CF90089557
:100EC0000F931F938C010E94B405C8010E940B0769
:100ED0001F910F9108950F931F938C010E94BC05E1
:100EE000C8010E940B071F910F9108950F931F9344
:100EF0008C010E94B006C8010E940B071F910F9140
:100F00000895CF92DF92EF92FF920F931F938C017F
:100F10006B019A01EE24D7FCE094FE2CB701A601E8
:100F20000E94B006C8010E940B071F910F91FF900D
:100F3000EF90DF90CF900895CF92DF92EF92FF92E3
:100F40000F931F938C019A01C62EDD24EE24FF24FB
:100F5000B701A6010E94B006C8010E940B071F91AD
:100F60000F91FF90EF90DF90CF9008959F92AF92F6
:100F7000BF92CF92DF92EF92FF920F931F93CF9386
:100F8000DF93EC017A018B01922ECB01BA0120E0B4
:100F900030E040E050E00E94A81588236CF4CE01B8
:100FA0004DE250E060E070E020E030E00E94B006EA
:100FB00017FB109517F9109520E030E040E05FE353
:100FC000AA240BC0CA01B90120E030E040E251E49C
:100FD0000E94CC149B01AC01A394A91498F3C801FE
:100FE000B7010E94A5135B016C010E94FC117B01FB
:100FF0008C01CE01B801A7012AE030E00E947E06F4
:10100000992029F0CE0160E371E00E94B405C80187
:10101000B7010E948A169B01AC01C601B5010E946E
:10102000741322C020E030E040E251E40E94D21369
:101030007B018C010E9436165B016C01CC24B7FC4D
:10104000C094DC2CCE01B601A5012AE030E00E945C
:10105000B006C601B5010E94D8159B01AC01C801BC
:10106000B7010E9474139A949920E1F6DF91CF9111
:101070001F910F91FF90EF90DF90CF90BF90AF90B6
:101080009F9008950E94B60708950F931F938C01B7
:101090000E94B607C8010E940B071F910F91089587
:1010A000FC010190F081E02DE60FF71F808108958B
:1010B000DC01ED91FC911197309751F014968D91D0
:1010C0009C9115976817790718F4E60FF71F40836E
:1010D0000895FC019B01848195816817790728F4A4
:1010E000608171816115710529F410922A036AE209
:1010F00073E002C0620F731FCB010895FC010190E1
:10110000F081E02DE60FF71F80810895FC018081BA
:1011100091810E94F21B08950F931F93CF93DF9349
:10112000FC018B0141155105A1F06115710589F094
:1011300084819581EA0121978C179D0708F4EC01C1
:1011400060817181C801AE010E946E1CC00FD11F69
:101150001882DF91CF911F910F9108950F931F93E4
:10116000CF93DF93FC018B0141155105A1F061156F
:10117000710589F084819581EA0121978C179D077B
:1011800008F4EC0160817181C801AE010E946E1CFF
:10119000C00FD11F1882DF91CF911F910F91089539
:1011A0000F931F938C01FC01808191810E94CC1AC6
:1011B000F80113821282158214821F910F910895F3
:1011C000FC01DB0114962D913C911597848195814A
:1011D000821B930B8417950710F480E0089580819B
:1011E00091816D917C91840F951FA9010E94601CD3
:1011F0009C0180E0232B09F481E00895FC01DB01D0
:101200002481358114968D919C9115972817390763
:1012100010F480E00895CF0140E050E00E94E00823
:101220000895DF92EF92FF920F931F93CF93DF9376
:10123000EC018C819D8148175907B8F47A01089414
:10124000E11CF11CE881F981EE0DFF1DD0801082B8
:1012500008811981C80170E00E947D1C9C010E0D5F
:101260001F1DF801D082009719F4EFEFFFEF05C0C2
:1012700088819981F901E81BF90BCF01DF91CF91AA
:101280001F910F91FF90EF90DF900895FC01448132
:101290005581415050400E9411090895CF93DF932A
:1012A000FC01DB01848195814817590760F4C081F6
:1012B000D1816D917C91CE01840F951F0E94881C75
:1012C0009C01009719F42FEF3FEF02C02C1B3D0B40
:1012D000C901DF91CF91089540E050E00E944E098E
:1012E0000895CF93DF93FC018481958148175907B6
:1012F00058F4C081D181CE01840F951F70E00E9407
:10130000451C9C01009719F42FEF3FEF02C02C1BE6
:101310003D0BC901DF91CF91089540E050E00E945C
:1013200071090895DC01FB0114962D913C911597EC
:10133000848195812817390711F080E00895608134
:1013400071818D919C910E94501C9C0180E0232B07
:1013500009F481E00895FC01DB01248135811496B4
:101360008D919C9115972817390710F480E0089506
:10137000281B390B808191816D917C91820F931F85
:101380000E94501C9C0180E0232B09F481E0089509
:10139000DC01FB01608171818D919C910E94501C48
:1013A000292F332727FD3095209530952227330F9D
:1013B000221F3327C9010895DC01FB01608171817F
:1013C0008D919C910E94501C40E050E01816190627
:1013D00014F041E050E0CA010895DC01FB01608196
:1013E00071818D919C910E94501C40E050E0181634
:1013F000190614F441E050E0CA010895DC01FB0134
:10140000608171818D919C910E94501C292F3327FE
:1014100027FD30952227330F221F3327C901089556
:10142000DC01FB0114962D913C91159784819581E7
:101430002817390751F4608171818D919C910E9428
:10144000501C9C0180E0232B09F081E090E008957E
:10145000DC01FB0114962D913C91159784819581B7
:101460002817390711F080E00BC0608171818D91E0
:101470009C910E94501C9C0180E0232B09F481E088
:1014800090E00895FC01DB016D917C918081918158
:101490000E94501C08950F931F93CF93DF93EC018C
:1014A0008B01FB01648175818C819D81680F791F9F
:1014B0007D836C838A819B8186179707B8F46F5F61
:1014C0007F4F888199810E94241B4C815D81009708
:1014D00029F0998388835B834A8308C0F80184815B
:1014E0009581481B590B5D834C8307C0F8016081CF
:1014F0007181888199810E943A1CCE01DF91CF9140
:101500001F910F9108950E944B0A0895CF93DF9386
:10151000EC01CB017B836A8301960E941F1A998399
:101520008883009721F41B821A821D821C82DF911E
:10153000CF9108950F931F93CF93DF93EC018B010D
:101540008617970709F1FB01248135818C819D81E4
:101550008217930750F4888199810E94CC1AF80170
:1015600064817581CE010E94860A28813981211506
:10157000310551F0F801848195819D838C836081D0
:101580007181C9010E94591CCE01DF91CF911F9139
:101590000F9108951F93CF93DF93EC01162F81E0F5
:1015A00090E09D838C83CE0161E070E00E94860A0A
:1015B000E881F981309721F01083E881F981118267
:1015C000DF91CF911F9108951F93CF93DF93EC018B
:1015D000162F81E090E09D838C83CE0161E070E066
:1015E0000E94860AE881F981309721F01083E88112
:1015F000F9811182DF91CF911F9108951F93CF93AD
:10160000DF93EC01162F81E090E09D838C83CE0167
:1016100061E070E00E94860AE881F981309721F04C
:101620001083E881F9811182DF91CF911F91089594
:101630001F93CF93DF93EC01162F81E090E09D8301
:101640008C83CE0161E070E00E94860AE881F98116
:10165000309721F01083E881F9811182DF91CF91D9
:101660001F9108950F931F93CF93DF938C01EB018C
:101670006C817D81FC01758364830E94860AF80178
:1016800080819181009721F0688179810E94591CA5
:10169000DF91CF911F910F9108950F931F93CF93D7
:1016A000DF938C01EB016C817D81FC017583648388
:1016B0000E94860AF80180819181009721F068815B
:1016C00079810E94591CDF91CF911F910F9108954C
:1016D000EF92FF920F931F93DF93CF93CDB7DEB7B7
:1016E000A1970FB6F894DEBF0FBECDBF8C01CB0122
:1016F000BA017E010894E11CF11CA7012AE030E048
:101700000E940C1DF70101900020E9F73197EE19B6
:10171000FF09D8011596FC93EE931497C801BF01F9
:101720000E94860AF80180819181009719F0B70123
:101730000E94591CA1960FB6F894DEBF0FBECDBF14
:10174000CF91DF911F910F91FF90EF900895EF924D
:10175000FF920F931F93DF93CF93CDB7DEB7A1977F
:101760000FB6F894DEBF0FBECDBF8C01CB01BA011E
:101770007E010894E11CF11CA7012AE030E00E94E0
:101780000C1DF70101900020E9F73197EE19FF09D0
:10179000D8011596FC93EE931497C801BF010E94DF
:1017A000860AF80180819181009719F0B7010E94A3
:1017B000591CA1960FB6F894DEBF0FBECDBFCF91D6
:1017C000DF911F910F91FF90EF900895EF92FF929C
:1017D0000F931F93DF93CF93CDB7DEB7A1970FB6CB
:1017E000F894DEBF0FBECDBF8C019A0180E090E07F
:1017F0007E010894E11CF11CA7010E940C1DF70159
:1018000001900020E9F73197EE19FF09D8011596EC
:10181000FC93EE931497C801BF010E94860AF80159
:1018200080819181009719F0B7010E94591CA196FF
:101830000FB6F894DEBF0FBECDBFCF91DF911F91E1
:101840000F91FF90EF900895EF92FF920F931F93E7
:10185000DF93CF93CDB7DEB7A1970FB6F894DEBF75
:101860000FBECDBF8C019A0180E090E07E0108940C
:10187000E11CF11CA7010E940C1DF7010190002042
:10188000E9F73197EE19FF09D8011596FC93EE930D
:101890001497C801BF010E94860AF80180819181D6
:1018A000009719F0B7010E94591CA1960FB6F89441
:1018B000DEBF0FBECDBFCF91DF911F910F91FF9083
:1018C000EF9008950F931F93CF93DF938C01EB015B
:1018D0006115710511F4CCE3D1E0FE010190002007
:1018E000E9F73197EC1BFD0BD8011596FC93EE93AD
:1018F0001497C801BF010E94860AF8018081918176
:10190000009719F0BE010E94591CDF91CF911F91E1
:101910000F910895AF92BF92CF92DF92EF92FF9214
:101920000F931F93CF93DF93B82EA92E6B01C82F6F
:10193000D92FFB0160817181CE010E94620CEE24DF
:10194000FF240EC0088119810E0D1F1DF801808132
:1019500090E00E94291CF80180830894E11CF11C8E
:10196000F60184819581E816F90660F38B2D9A2D96
:10197000DF91CF911F910F91FF90EF90DF90CF906B
:10198000BF90AF900895AF92BF92CF92DF92EF9247
:10199000FF920F931F93CF93DF93B82EA92E6B0165
:1019A000C82FD92FFB0160817181CE010E94620C8A
:1019B000EE24FF240EC0088119810E0D1F1DF801B1
:1019C000808190E00E94211CF80180830894E11C32
:1019D000F11CF60184819581E816F90660F38B2DE0
:1019E0009A2DDF91CF911F910F91FF90EF90DF9093
:1019F000CF90BF90AF900895EF92FF920F931F93F7
:101A0000DF93CF93CDB7DEB72C970FB6F894DEBF38
:101A10000FBECDBFFC017B018617970711F401E0D3
:101A200029C024813581DB0114968D919C911597F5
:101A30002817390711F000E01DC0CE010196BF0143
:101A40000E94C30C09811A81CE010796B7010E943A
:101A5000C30C6F817885C8010E94501C00E000977C
:101A600009F401E0CE0107960E94D008CE0101964C
:101A70000E94D008802F2C960FB6F894DEBF0FBEC0
:101A8000CDBFCF91DF911F910F91FF90EF900895FF
:101A9000CF92DF92EF92FF921F93CF93DF936C016F
:101AA0007B01B9012417350710F4BA01A901D70148
:101AB00014968D919C911597EB018617970708F462
:101AC000EC01D701ED91FC911197EC0FFD1F1081F6
:101AD00010826D917C91640F751FC6010E94620C8B
:101AE000D701ED91FC91EC0FFD1F1083C601DF9132
:101AF000CF911F91FF90EF90DF90CF9008950F93BB
:101B00001F938C01FB01248135810E94480DC8017F
:101B10001F910F9108958F929F92AF92BF92CF9293
:101B2000DF92EF92FF920F931F93DF93CF9300D03A
:101B300000D000D0CDB7DEB75C016B01DB0114969D
:101B40008D919C9115970097A1F10197481759071E
:101B500080F1F501848195814817590750F5ED9181
:101B6000FC9100817A014E010894811C911C1FC0D8
:101B7000D501ED91FC91EE0DFF1D80818017A1F440
:101B8000F601248135812E0D3F1DC401B501A70149
:101B90000E94480DC401B6010E949209182FC40189
:101BA0000E94D008112341F40894E108F108F7FEDF
:101BB000DFCFEE24EA94FE2CC70126960FB6F894E8
:101BC000DEBF0FBECDBFCF91DF911F910F91FF9070
:101BD000EF90DF90CF90BF90AF909F908F9008953F
:101BE000FC01DB014481558114968D919C911597E0
:101BF000481B590BCF010E948B0D0895AF92BF92E5
:101C0000CF92DF92EF92FF920F931F93DF93CF93C8
:101C100000D000D000D0CDB7DEB75C018B01DB0176
:101C20006D917C916115710521F4B8010E94320B10
:101C30003EC0CE0101960E94620CF801E480F5805E
:101C4000CC24DD240EC0D801ED91FC91EC0DFD1DDE
:101C5000808190E00E94191C892B31F00894C11CEE
:101C6000D11CCE14DF0478F3ED80FE800BC0D801C8
:101C7000ED91FC91EE0DFF1D808190E00E94191CFA
:101C8000892B31F00894E108F108CE14DF0478F3D1
:101C90000894E11CF11CC5018E010F5F1F4FB801B4
:101CA000A60197010E94480DC8010E94D008C501F5
:101CB00026960FB6F894DEBF0FBECDBFCF91DF9151
:101CC0001F910F91FF90EF90DF90CF90BF90AF905A
:101CD00008952F923F924F925F926F927F928F92D0
:101CE0009F92AF92BF92CF92DF92EF92FF920F93AB
:101CF0001F93DF93CF93CDB7DEB768970FB6F894F5
:101D0000DEBF0FBECDBF3C01FB012A01190160817E
:101D100071816115710521F4BF010E94320B5AC017
:101D20007E010894E11CF11CC7010E94620C8E0127
:101D3000095F1F4FC8016CE371E00E94620CD02E56
:101D4000C12E3DE0832E912C8C0E9D1E23E1A22EF0
:101D5000B12CAC0EBD1E24C0C401B70140E050E060
:101D600098010E94480D8D2D9C2DB4010E944B0AB4
:101D7000C4010E94D0088D2D9C2DB1010E944B0AF8
:101D8000F20144815581400F511FC501B7010E94E6
:101D90007F0DC701B5010E949A0AC5010E94D008B3
:101DA000C701B2010E946C098C01FFEF8F3F9F07B2
:101DB00099F68D2D9C2DB7010E944B0AC3016D2D04
:101DC0007C2D0E94320B8D2D9C2D0E94D008C701C6
:101DD0000E94D008C30168960FB6F894DEBF0FBE0C
:101DE000CDBFCF91DF911F910F91FF90EF90DF90CA
:101DF000CF90BF90AF909F908F907F906F905F90AB
:101E00004F903F902F900895EF92FF920F931F9362
:101E1000DF93CF9300D000D000D0CDB7DEB77C01E8
:101E2000FB01142F022F608171816115710521F46E
:101E3000BF010E94320B19C0CE0101960E94620CB4
:101E400089819A8101C00083612F70E00E94451C46
:101E5000FC010097C1F7C7018E010F5F1F4FB8014A
:101E60000E94320BC8010E94D008C70126960FB607
:101E7000F894DEBF0FBECDBFCF91DF911F910F91C0
:101E8000FF90EF9008950F931F93CF93DF938C01F2
:101E9000EB016115710511F4CCE3D1E0FE01019075
:101EA0000020E9F73197EC1BFD0BD8011596FC9348
:101EB000EE931497C801BF010E94860AF801808141
:101EC0009181009719F0BE010E94591CDF91CF91BA
:101ED0001F910F910895EF92FF920F931F93DF933D
:101EE000CF93CDB7DEB7A1970FB6F894DEBF0FBE84
:101EF000CDBF8C01CB01BA017E010894E11CF11C1D
:101F0000A7010E94C31CF70101900020E9F7319757
:101F1000EE19FF09D8011596FC93EE931497C801AA
:101F2000BF010E94860AF80180819181009719F013
:101F3000B7010E94591CA1960FB6F894DEBF0FBEE0
:101F4000CDBFCF91DF911F910F91FF90EF9008953A
:101F5000EF92FF920F931F93DF93CF93CDB7DEB72E
:101F6000A1970FB6F894DEBF0FBECDBF8C01CB0199
:101F7000BA017E010894E11CF11CA7010E94C31C58
:101F8000F70101900020E9F73197EE19FF09D80118
:101F90001596FC93EE931497C801BF010E94860A20
:101FA000F80180819181009719F0B7010E94591CB6
:101FB000A1960FB6F894DEBF0FBECDBFCF91DF91D3
:101FC0001F910F91FF90EF900895EF92FF920F9362
:101FD0001F93DF93CF93CDB7DEB7A1970FB6F894D9
:101FE000DEBF0FBECDBF8C01CB017E010894E11C8A
:101FF000F11CB7010E94A21CF70101900020E9F733
:102000003197EE19FF09D8011596FC93EE931497BA
:10201000C801BF010E94860AF80180819181009762
:1020200019F0B7010E94591CA1960FB6F894DEBFB3
:102030000FBECDBFCF91DF911F910F91FF90EF9019
:102040000895EF92FF920F931F93DF93CF93CDB735
:10205000DEB7A1970FB6F894DEBF0FBECDBF8C01DF
:10206000CB017E010894E11CF11CB7010E94A21C67
:10207000F70101900020E9F73197EE19FF09D80127
:102080001596FC93EE931497C801BF010E94860A2F
:10209000F80180819181009719F0B7010E94591CC5
:1020A000A1960FB6F894DEBF0FBECDBFCF91DF91E2
:1020B0001F910F91FF90EF9008951F920F920FB60E
:1020C0000F9211242F933F938F939F93AF93BF93BE
:1020D00080912F0390913003A0913103B09132038E
:1020E000309133030196A11DB11D232F2D5F2D3794
:1020F00020F02D570196A11DB11D2093330380932D
:102100002F0390933003A0933103B0933203809157
:102110002B0390912C03A0912D03B0912E030196D7
:10212000A11DB11D80932B0390932C03A0932D032D
:10213000B0932E03BF91AF919F918F913F912F91BB
:102140000F900FBE0F901F9018958FB7F8942091A5
:102150002F033091300340913103509132038FBFF0
:10216000B901CA0108959FB7F89420912B033091CB
:102170002C0340912D0350912E0386B5A89B06C0D9
:102180008F3F21F02F5F3F4F4F4F5F4F9FBF542F27
:10219000432F322F2227280F311D411D511D82E070
:1021A000220F331F441F551F8A95D1F7B901CA0169
:1021B0000895EF92FF920F931F93CF93DF937B01CC
:1021C0008C010E94B310EB010EC00E94B3106C1B77
:1021D0007D0B685E7340C8F30894E108F1080109BB
:1021E0001109C851DC4FE114F1040105110569F72B
:1021F000DF91CF911F910F91FF90EF90089501977C
:1022000039F0880F991F880F991F02970197F1F7EE
:102210000895789484B5826084BD84B5816084BD5E
:1022200085B5826085BD85B5816085BDEEE6F0E04F
:10223000808181608083E1E8F0E0108280818260AB
:102240008083808181608083E0E8F0E0808181602C
:102250008083E1EBF0E0808184608083E0EBF0E05C
:10226000808181608083EAE7F0E080818460808300
:1022700080818260808380818160808380818068AA
:1022800080831092C1000895482F50E0CA01865DF6
:102290009E4FFC0124914A5E5E4FFA01849188238F
:1022A000C1F0E82FF0E0EE0FFF1FE850FF4FA591BF
:1022B000B491662341F49FB7F8948C9120958223C2
:1022C0008C939FBF08959FB7F8948C91822B8C9329
:1022D0009FBF0895833071F0843028F48130A1F0DD
:1022E000823021F514C08630B1F08730D1F08430CF
:1022F000E9F404C0809180008F7703C08091800052
:102300008F7D80938000089584B58F7702C084B557
:102310008F7D84BD08958091B0008F778093B00049
:1023200008958091B0008F7D8093B0000895FF9252
:102330000F931F93F62E482F50E0CA01825C9E4FE8
:10234000FC012491CA01865D9E4FFC0114914A5EF6
:102350005E4FFA0104910023D9F0222319F0822F55
:102360000E946A11E02FF0E0EE0FFF1FEE5FFE4FBC
:10237000A591B491FF2031F49FB7F8948C911095FA
:10238000812304C09FB7F8948C91812B8C939FBFBD
:102390001F910F91FF9008950F931F93482F50E0C6
:1023A000CA01825C9E4FFC012491CA01865D9E4F4A
:1023B000FC0104914A5E5E4FFA011491112319F455
:1023C00020E030E015C0222319F0822F0E946A110C
:1023D000812F90E0880F991F845F9E4FFC01A5918B
:1023E000B4918C9120E030E0802311F021E030E0C6
:1023F000C9011F910F910895EF92FF920F931F93C0
:102400007B018C0120E030E040E05FE40E94781521
:1024100088238CF0C801B70120E030E040E05FE4A1
:102420000E9474130E9436169B01AC01205030406C
:102430004040504806C0C801B7010E9436169B01B3
:10244000AC01B901CA011F910F91FF90EF9008955F
:10245000A0E0B0E0EEE2F2E10C94E219DC012B0125
:10246000FA019C91923008F439C1EB0188818230E5
:1024700008F433C1943069F4843009F02FC1119607
:102480009C9111978981981709F428C1ADE3B1E0B7
:1024900025C1843009F421C18230A9F4923009F0B9
:1024A0001DC19A01AD0188E0EA010990AE01E90180
:1024B00009929E018150C1F7E201898111969C9198
:1024C0008923818308C1923009F407C112962D90A7
:1024D0003C901397EB018A819B811496AD90BD903F
:1024E000CD90DC901797EC80FD800E811F819101CB
:1024F000281B390BB90137FF04C066277727621BF9
:10250000730B603271050CF061C0121613066CF586
:1025100037014801062E04C09694879477946794F7
:102520000A94D2F721E030E040E050E004C0220FEE
:10253000331F441F551F6A95D2F721503040404049
:1025400050402E213F2140235123211531054105C3
:10255000510521F021E030E040E050E079018A01AE
:10256000E628F728082919293CC0232BD1F1260E8B
:10257000371E35014601062E04C096948794779441
:1025800067940A94D2F721E030E040E050E004C0C4
:10259000220F331F441F551F6A95D2F72150304038
:1025A000404050402A213B214C215D21211531051D
:1025B0004105510521F021E030E040E050E05901B3
:1025C0006A01A628B728C828D9280BC08215930508
:1025D0002CF01C01AA24BB24650103C0EE24FF24B7
:1025E000870111969C91D20111968C91981709F44C
:1025F00045C0992339F0A80197012A193B094C09D4
:102600005D0906C0A60195012E193F09400B510B2B
:1026100057FD08C01182338222822483358346838A
:1026200057831DC081E081833382228288279927C6
:10263000DC01821B930BA40BB50B84839583A683CB
:10264000B7830DC0220F331F441F551F24833583CA
:102650004683578382819381019793838283248168
:10266000358146815781DA01C9010197A109B10974
:102670008F5F9F4FAF4FBF4328F30BC091833382CF
:102680002282EA0CFB1C0C1D1D1DE482F5820683D0
:10269000178383E08083248135814681578157FFEA
:1026A0001AC0C901AA2797FDA095BA2F8170907012
:1026B000A070B0705695479537952795822B932B30
:1026C000A42BB52B84839583A683B78382819381C2
:1026D000019693838283DF0101C0D201CD01CDB782
:1026E000DEB7E2E10C94FE19A0E2B0E0EAE7F3E124
:1026F0000C94EE1969837A838B839C832D833E83AC
:102700004F835887E9E0EE2EF12CEC0EFD1ECE0132
:102710000196B7010E9427188E010F5E1F4FCE0150
:102720000596B8010E9427188A8991E089278A8B2B
:10273000C701B801AE01475E5F4F0E9428120E9498
:102740005217A096E6E00C940A1AA0E2B0E0EBEA79
:10275000F3E10C94EE1969837A838B839C832D8338
:102760003E834F835887F9E0EF2EF12CEC0EFD1ECF
:10277000CE010196B7010E9427188E010F5E1F4FF0
:10278000CE010596B8010E942718C701B801AE0115
:10279000475E5F4F0E9428120E945217A096E6E003
:1027A0000C940A1AA0E2B0E0E8EDF3E10C94E2190F
:1027B00069837A838B839C832D833E834F835887E1
:1027C000CE010196BE01675F7F4F0E942718CE01A0
:1027D0000596BE016F5E7F4F0E9427189985923043
:1027E00088F089898230C8F0943019F4823051F42D
:1027F00004C0843029F4923081F48DE391E0C6C0A6
:10280000923049F420E09A858A89981321E02A873A
:10281000CE010996BBC0823049F420E09A858A89AE
:10282000981321E02A8BCE014196B0C02D843E84BE
:102830004F8458886D887E888F88988CEE24FF247A
:102840008701AA24BB24650140E050E060E070E00D
:10285000E0E0F0E0C10181709070892BE9F0E60CB6
:10286000F71C081D191D9A01AB012A0D3B1D4C1DBB
:102870005D1D80E090E0A0E0B0E0E614F7040805FC
:10288000190520F481E090E0A0E0B0E0BA01A901D0
:10289000480F591F6A1F7B1FAA0CBB1CCC1CDD1CD8
:1028A00097FE08C081E090E0A0E0B0E0A82AB92A35
:1028B000CA2ADB2A3196E032F10549F0660C771C12
:1028C000881C991C5694479437942794C3CFFA8553
:1028D000EA892B893C898B859C85280F391F2E5FBF
:1028E0003F4F17C0CA0181709070892B61F0169517
:1028F0000795F794E79480E090E0A0E0B0E8E82A3C
:10290000F92A0A2B1B2B76956795579547952F5FCC
:102910003F4F77FDE7CF0CC0440F551F661F771F51
:1029200017FD4160EE0CFF1C001F111F21503040AD
:10293000403090E0590790E0690790E4790760F330
:102940002B8F3C8FDB01CA018F779070A070B07025
:1029500080349105A105B10561F447FD0AC0E11479
:10296000F1040105110529F0405C5F4F6F4F7F4F67
:1029700040781A8EFE1711F081E08A8F4D8F5E8F9E
:102980006F8F78A383E0898FCE0149960E945217FA
:10299000A096E2E10C94FE19A8E1B0E0E2EDF4E1CA
:1029A0000C94EA1969837A838B839C832D833E83FD
:1029B0004F835887B9E0EB2EF12CEC0EFD1ECE01B3
:1029C0000196B7010E9427188E010F5E1F4FCE019E
:1029D0000596B8010E9427182985223008F47EC088
:1029E0003989323010F4B8017CC08A859A898927E8
:1029F0008A87243011F0223031F4231709F06EC099
:102A00006DE371E06EC0343039F41D861E861F867A
:102A1000188A1C861B8604C0323021F484E0898722
:102A2000B7015FC02B853C858B899C89281B390B9E
:102A30003C872B87ED84FE840F851889AD88BE887E
:102A4000CF88D88CEA14FB040C051D0540F4EE0C6D
:102A5000FF1C001F111F215030403C872B8720E0B6
:102A600030E040E050E080E090E0A0E0B0E460E0E2
:102A700070E0EA14FB040C051D0540F0282B392BEF
:102A80004A2B5B2BEA18FB080C091D09B695A79584
:102A900097958795EE0CFF1C001F111F6F5F7F4FEE
:102AA0006F31710531F7DA01C9018F779070A0702D
:102AB000B07080349105A105B10561F427FD0AC00D
:102AC000E114F1040105110529F0205C3F4F4F4F3F
:102AD0005F4F20782D873E874F87588BBE01675FF9
:102AE0007F4FCB010E9452176896EAE00C94061AB9
:102AF000A8E1B0E0EEE7F5E10C94EE1969837A8382
:102B00008B839C832D833E834F83588789E0E82EF7
:102B1000F12CEC0EFD1ECE010196B7010E94271884
:102B20008E010F5E1F4FCE010596B8010E94271837
:102B30008985823040F08989823028F0C701B80148
:102B40000E949F1801C08FEF6896E6E00C940A1A65
:102B5000A8E1B0E0EEEAF5E10C94EE1969837A831E
:102B60008B839C832D833E834F83588789E0E82E97
:102B7000F12CEC0EFD1ECE010196B7010E94271824
:102B80008E010F5E1F4FCE010596B8010E942718D7
:102B90008985823040F08989823028F0C701B801E8
:102BA0000E949F1801C081E06896E6E00C940A1A22
:102BB000A8E0B0E0EEEDF5E10C94EB199B01AC015F
:102BC00083E08983DA01C9018827B7FD83959927B6
:102BD000AA27BB27B82E211531054105510519F447
:102BE00082E089833AC08823A9F0203080E038074A
:102BF00080E0480780E8580729F460E070E080E052
:102C00009FEC30C0EE24FF248701E21AF30A040B84
:102C1000150B02C079018A018EE1C82ED12CDC820D
:102C2000CB82ED82FE820F831887C801B7010E9414
:102C3000031701971816190684F4082E04C0EE0C29
:102C4000FF1C001F111F0A94D2F7ED82FE820F8332
:102C50001887C81AD90ADC82CB82BA82CE010196C3
:102C60000E9452172896E9E00C94071AACE0B0E0F5
:102C7000ECE3F6E10C94F21969837A838B839C83ED
:102C8000CE010196BE016B5F7F4F0E9427188D8198
:102C9000823061F1823050F1843021F48E818823BA
:102CA00051F12EC02F81388537FD20C06E812F3124
:102CB00031051CF06623F9F023C08EE190E0821B01
:102CC000930B29853A854B855C8504C056954795BD
:102CD000379527958A95D2F76623B1F050954095A0
:102CE000309521953F4F4F4F5F4F0EC020E030E0B1
:102CF00040E050E009C02FEF3FEF4FEF5FE704C027
:102D000020E030E040E050E8B901CA012C96E2E052
:102D10000C940E1AA8E0B0E0E0E9F6E10C94EA1990
:102D20007B018C01611571058105910519F482E023
:102D3000898360C083E089838EE1C82ED12CDC8238
:102D4000CB82ED82FE820F831887C801B7010E94F3
:102D50000317FC013197F7FF3BC0222733272E1BB7
:102D60003F0B57016801022E04C0D694C794B79454
:102D7000A7940A94D2F740E050E060E070E081E070
:102D800090E0A0E0B0E004C0880F991FAA1FBB1F0D
:102D90002A95D2F70197A109B1098E219F21A0237D
:102DA000B1230097A105B10521F041E050E060E0BA
:102DB00070E04A295B296C297D294D835E836F83EE
:102DC00078878EE190E08E1B9F0B9C838B8312C0D3
:102DD000309781F00E2E04C0EE0CFF1C001F111F57
:102DE0000A94D2F7ED82FE820F831887CE1ADF0A8B
:102DF000DC82CB821A82CE0101960E94521728965D
:102E0000EAE00C94061AEF92FF920F931F937B0156
:102E10008C0180E0E81680E0F80681E0080780E099
:102E2000180788F48FEFE816F1040105110531F059
:102E300028F088E090E0A0E0B0E017C080E090E0EB
:102E4000A0E0B0E012C080E0E81680E0F80680E084
:102E5000080781E0180728F088E190E0A0E0B0E0E2
:102E600004C080E190E0A0E0B0E020E230E040E08B
:102E700050E0281B390B4A0B5B0B04C016950795D5
:102E8000F794E7948A95D2F7F701EB5BFE4F8081C8
:102E9000281B310941095109C9011F910F91FF9068
:102EA000EF900895DF92EF92FF920F931F93FC0132
:102EB000E480F58006811781D1808081823048F4DA
:102EC00080E090E0A0E1B0E0E82AF92A0A2B1B2B71
:102ED000A5C0843009F49FC0823021F4EE24FF2481
:102EE000870105C0E114F1040105110519F4E0E0C2
:102EF000F0E096C0628173819FEF623879070CF031
:102F00005BC022E83FEF261B370B2A3131052CF03E
:102F100020E030E040E050E02AC0B801A701022ED6
:102F200004C076956795579547950A94D2F781E046
:102F300090E0A0E0B0E004C0880F991FAA1FBB1F5B
:102F40002A95D2F70197A109B1098E219F21A023CB
:102F5000B1230097A105B10521F081E090E0A0E048
:102F6000B0E09A01AB01282B392B4A2B5B2BDA01FD
:102F7000C9018F779070A070B07080349105A10561
:102F8000B10539F427FF09C0205C3F4F4F4F5F4F19
:102F900004C0215C3F4F4F4F5F4FE0E0F0E0203036
:102FA000A0E03A07A0E04A07A0E45A0710F0E1E0E9
:102FB000F0E079018A0127C06038710564F5FB01F2
:102FC000E158FF4FD801C7018F779070A070B070A3
:102FD00080349105A105B10539F4E7FE0DC080E408
:102FE00090E0A0E0B0E004C08FE390E0A0E0B0E0AB
:102FF000E80EF91E0A1F1B1F17FF05C0169507953F
:10300000F794E794319687E016950795F794E7943F
:103010008A95D1F705C0EE24FF248701EFEFF0E099
:103020006E2F679566276795902F9F77D794DD243D
:10303000D7948E2F8695492F462B582F5D29B7019F
:10304000CA011F910F91FF90EF90DF900895FC014E
:10305000DB01408151812281622F6F7770E0221F56
:103060002227221F9381892F880F822B282F30E05F
:10307000991F9927991F11969C9311972115310536
:10308000A9F5411551056105710511F482E037C0BC
:1030900082E89FEF13969C938E9312979A01AB014F
:1030A00067E0220F331F441F551F6A95D1F783E055
:1030B0008C930DC0220F331F441F551F12968D9104
:1030C0009C911397019713969C938E93129720309F
:1030D00080E0380780E0480780E4580758F31496EA
:1030E0002D933D934D935C93179708952F3F310592
:1030F00079F4411551056105710519F484E08C934B
:10310000089564FF03C081E08C9312C01C9210C02C
:103110002F57304013963C932E93129783E08C9355
:1031200087E0440F551F661F771F8A95D1F770649B
:1031300014964D935D936D937C93179708951F9309
:10314000DC01FB019C91923008F447C08081823001
:1031500008F443C0943051F411961C91843099F5D1
:103160008181682F70E0611B71093FC0843021F0BC
:10317000923031F48230B9F18181882389F12DC0F8
:1031800011961C9111978230F1F081811817D9F4B2
:1031900012962D913C911397828193818217930708
:1031A00094F028173907BCF014968D919D910D90DD
:1031B000BC91A02D2481358146815781281739077C
:1031C0004A075B0718F4112341F00AC082179307DE
:1031D000A407B50740F4112319F061E070E005C0C1
:1031E0006FEF7FEF02C060E070E0CB011F910895A8
:1031F000F894FFCF8130910559F46F5F7F4F89F4C8
:1032000087E393E062E046E020E00E9470030895C7
:10321000892B39F46F5F7F4F21F487E393E00E949D
:10322000CF01089580E090E06FEF7FEF0E94FA18E1
:10323000089581E090E06FEF7FEF0E94FA18089503
:1032400080914B0261E00E94971164E670E080E09B
:1032500090E00E94D91080914B0260E00E9497118B
:1032600064E670E080E090E00E94D910E9CFCF934F
:10327000DF93C0E0D0E0609134037091350382E9C0
:1032800092E00E94BD0380933603609134037091F5
:10329000350387E193E04AE050E00E94E60687E1CB
:1032A00093E060E071E00E94B40587E193E06091F3
:1032B00036034AE050E00E949E0687E193E00E94B8
:1032C0000B07809134039091350301969093350359
:1032D000809334038050924021F410923503109271
:1032E00034036AE070E080E090E00E94D9102196FB
:1032F00082E0C030D80709F0BECFDF91CF910895AA
:1033000080914B0261E00E94441187E193E040E824
:1033100055E260E070E00E9452040E94371908955F
:103320000E9409110E9480190E94201980E090E0FB
:10333000089597FB092E07260AD077FD04D02ED0DA
:1033400006D000201AF4709561957F4F0895F6F726
:10335000909581959F4F0895A1E21A2EAA1BBB1B41
:10336000FD010DC0AA1FBB1FEE1FFF1FA217B30751
:10337000E407F50720F0A21BB30BE40BF50B661F67
:10338000771F881F991F1A9469F76095709580952B
:1033900090959B01AC01BD01CF010895AA1BBB1BF9
:1033A00051E107C0AA1FBB1FA617B70710F0A61B45
:1033B000B70B881F991F5A95A9F780959095BC0166
:1033C000CD0108952F923F924F925F926F927F921C
:1033D0008F929F92AF92BF92CF92DF92EF92FF9225
:1033E0000F931F93CF93DF93CDB7DEB7CA1BDB0BD1
:1033F0000FB6F894DEBF0FBECDBF09942A88398876
:1034000048885F846E847D848C849B84AA84B9847C
:10341000C884DF80EE80FD800C811B81AA81B98188
:10342000CE0FD11D0FB6F894DEBF0FBECDBFED019C
:103430000895EE0FFF1F0590F491E02D0994CF93AE
:10344000DF93BC018230910510F462E070E0A0913E
:103450004B03B0914C03ED01E0E0F0E040E050E0C0
:1034600021C0888199818617970769F48A819B8199
:10347000309719F09383828304C090934C03809318
:103480004B03FE0134C06817790738F44115510524
:1034900019F08417950708F4AC01FE018A819B811D
:1034A0009C01E9012097E9F641155105A9F1CA01EE
:1034B000861B970B049708F4BA01E0E0F0E02AC0FD
:1034C0008D919C91119784179507F9F464177507EE
:1034D00081F412968D919C911397309719F09383F4
:1034E000828304C090934C0380934B03FD0132967A
:1034F0004FC0CA01861B970BFD01E80FF91F6193AE
:10350000719302978D939C9343C0FD0182819381B7
:103510009C01D9011097A1F68091490390914A032B
:10352000892B41F4809147029091480290934A037D
:10353000809349034091490250914A024115510537
:1035400041F44DB75EB78091450290914602481B09
:10355000590B2091490330914A0324173507B0F4E1
:10356000CA01821B930B8617970780F0AB014E5F51
:103570005F4F8417950750F0420F531F50934A0333
:1035800040934903F9016193719302C0E0E0F0E0D8
:10359000CF01DF91CF910895CF93DF93009709F486
:1035A00050C0EC0122971B821A82A0914B03B0916C
:1035B0004C03109709F140E050E0AC17BD0708F14B
:1035C000BB83AA83FE0121913191E20FF31FAE1755
:1035D000BF0779F48D919C911197280F391F2E5FA9
:1035E0003F4F3983288312968D919C9113979B832B
:1035F0008A834115510571F4D0934C03C0934B035A
:1036000020C012968D919C911397AD01009711F0F7
:10361000DC01D3CFFA01D383C28321913191E20F30
:10362000F31FCE17DF0769F488819981280F391FAE
:103630002E5F3F4FFA01318320838A819B819383E0
:103640008283DF91CF910895A0E0B0E0EAE2FBE150
:103650000C94E8198C01009729F4CB010E941F1AE1
:103660008C01BAC09EEFE92E9FEFF92EE00EF11EFD
:103670005801A60EB71EAE14BF0408F4ABC08EEFFF
:10368000882E8FEF982E8A0C9B1CE7014881598168
:1036900046175707B8F04530510508F49DC0CA01D8
:1036A00004978617970708F497C042505040461B6E
:1036B000570BF4015183408379836883C5010E94CD
:1036C000CC1A8AC06B01C41AD50AE0914B03F09161
:1036D0004C03A0E0B0E0C0E0D0E042C0E815F9053E
:1036E000A1F5208131812C153D0578F1C9010296A3
:1036F0008C159D05A8F04E5F5F4F420F531FE701E9
:103700005983488322813381109729F013963C9383
:103710002E93129761C030934C0320934B035CC0EF
:10372000225030402C193D0931832083109729F015
:103730001396FC93EE93129704C0F0934C03E0931E
:103740004B03F7017183608347C080819181C81763
:10375000D90708F4EC01DF01828193819C01F90112
:10376000309709F0BBCF400F511F809149039091D2
:103770004A0384179507E9F4C617D707D0F42091B8
:10378000490230914A022115310541F42DB73EB767
:103790008091450290914602281B390BA216B30670
:1037A000C8F4B0924A03A0924903E7017983688381
:1037B00013C0CB010E941F1AEC01009759F0F701CA
:1037C00040815181B8010E94311CC8010E94CC1A6D
:1037D0008E0102C000E010E0C801CDB7DEB7ECE01A
:1037E0000C94041A1F93FC0199278827BC01E894C4
:1037F00011911032E9F3193010F01E30C8F31B326A
:1038000051F01D3249F4689406C00E94F71C610F04
:10381000711D811D911D119110531A30B0F33EF4AA
:1038200090958095709561957F4F8F4F9F4F1F9119
:10383000089591112BC1803219F089508550D0F72D
:1038400008959111089581548A5108F4805E855A33
:1038500008959111089581568A5108F4805285582F
:103860000895FB01DC0102C001900D9241505040CF
:10387000D8F70895FB01DC010D900020E9F71197BE
:1038800001900D920020E1F70895FC0181918617C7
:1038900021F08823D9F7992708953197CF0108950A
:1038A000FB01DC018D91019080190110D9F3990B76
:1038B0000895FB01DC0101900D920020E1F70895CD
:1038C000FB01DC014150504030F08D910190801996
:1038D00019F40020B9F7881B990B0895FB01DC014E
:1038E0004150504048F001900D920020C9F701C0AE
:1038F0001D9241505040E0F70895FC0181E090E0B6
:103900000190061609F4CF010020D1F70197089520
:10391000FB0151915523A9F0BF01DC014D914517E1
:103920004111E1F759F4CD010190002049F04D918A
:1039300040154111C9F3FB014111EFCF81E090E047
:1039400001970895FB019F01E8944230C4F045328D
:10395000B4F44A3029F497FB1EF4909581959F4F5B
:10396000642F77270E94CE19805D8A330CF0895D21
:103970008193CB010097A1F716F45DE25193108279
:10398000C9010C94491DFA01CF93FF93EF932230A4
:1039900044F1253234F5C22FE894CA3049F497FB3C
:1039A0003EF490958095709561957F4F8F4F9F4F16
:1039B0002C2F332744275527FF93EF930E94AC19F0
:1039C000EF91FF91605D6A330CF0695D6193B9011D
:1039D000CA01605070408040904051F716F4CDE22B
:1039E000C19310828F919F91CF910C94491D592FB3
:1039F000482F372F262F660F771F881F991F660FB6
:103A0000771F881F991F620F731F841F951F660FF2
:103A1000771F881F991F0895FA01CF93FF93EF93A3
:103A20002230CCF02532BCF4C22F2C2F3327442770
:103A30005527FF93EF930E94AC19EF91FF91605DC2
:103A40006A330CF0695D6193B901CA01605070403E
:103A50008040904051F710828F919F91CF910C94AC
:103A6000491DF999FECF92BD81BDF89A992780B57D
:103A70000895262FF999FECF92BD81BD20BD0FB6C6
:103A8000F894FA9AF99A0FBE019608959927882713
:103A90000895DC01FC01672F71917723E1F73297DC
:103AA00004C07C916D9370836291AE17BF07C8F319
:103AB000089511E0C6E5D1E004C0FE010E941B1A82
:0C3AC0002296C835D107C9F7F894FFCF53
:103ACC000900000000006F027D0595050000000054
:103ADC0030057D059505D5040005E6042405000098
:103AEC000000F8187D059505F818F818F818F8185E
:103AFC002E0000000000F8187D0595050000000060
:103B0C00000000000000010202030303030404048C
:103B1C00040404040405050505050505050505054E
:103B2C00050505050506060606060606060606062E
:103B3C000606060606060606060606060606060619
:103B4C0006060606060707070707070707070707FE
:103B5C0007070707070707070707070707070707E9
:103B6C0007070707070707070707070707070707D9
:103B7C0007070707070707070707070707070707C9
:103B8C0007070707070808080808080808080808AE
:103B9C000808080808080808080808080808080899
:103BAC000808080808080808080808080808080889
:103BBC000808080808080808080808080808080879
:103BCC000808080808080808080808080808080869
:103BDC000808080808080808080808080808080859
:103BEC000808080808080808080808080808080849
:103BFC000808080808080808080808080808080839
:0E3C0C00080808080820004D0300000D000005
:00000001FF
